:100000000C9434000C9446000C9446000C9446006A
:100010000C9446000C9446000C9446000C94460048
:100020000C9446000C9446000C9446000C94460038
:100030000C9446000C9446000C9446000C94460028
:100040000C9446000C9446000C9446000C94460018
:100050000C9446000C9446000C9446000C94460008
:100060000C9446000C94460011241FBECFEFD8E03C
:10007000DEBFCDBF21E0A0E0B1E001C01D92A43001
:10008000B207E1F70E945A000C94AC000C940000F7
:1000900032990AC033990AC034990AC08827369920
:1000A0008395880F880F089581E0089582E0089570
:1000B00083E008958AB18C638AB987B1837E87B95A
:1000C0008BB1837C8BB9C1E00E944800833039F149
:1000D000843071F18130A9F08230D1F01BB81092D8
:1000E00000011092010110920301109202012FEF02
:1000F00084E39CE0215080409040E1F700C0000084
:10010000E3CF90910301911119C05A9A8093030192
:1001100080910201811116C05B9AC0930201809107
:100120000101811113C08BB180638BB9C0930101B0
:10013000809100018111D2CF5E9AD0CF5A9810924F
:100140000301E6CF5B9810920201E9CF8BB18F7C5F
:0C0150008BB910920101ECCFF894FFCFA6
:00000001FF
