:100000000C9434000C9446000C9446000C9446006A
:100010000C9446000C9446000C9446000C94460048
:100020000C9446000C9446000C9446000C94460038
:100030000C9446000C9446000C9446000C94460028
:100040000C9446000C9446000C9446000C94460018
:100050000C9446000C9446000C9446000C94460008
:100060000C9446000C94460011241FBECFEFD8E03C
:10007000DEBFCDBF21E0A0E0B1E001C01D92A43001
:10008000B207E1F70E945A000C94AF000C940000F4
:1000900032990AC033990AC034990AC08827359921
:1000A0008395880F880F089581E0089582E0089570
:1000B00083E008958AB18C638AB987B1837E87B95A
:1000C0008BB1837C8BB9C1E00E944800833079F109
:1000D0008430E9F1813051F08230E9F01BB81092A0
:1000E000000110920101109203011EC090910301C2
:1000F00091110DC05A9A809303012FEF84E39CE085
:10010000215080409040E1F700C00000DDCF5A98B8
:1001100010920301F2CF80910201811104C05B9A19
:10012000C0930201EACF5B9810920201E6CF809162
:100130000101811106C08BB180638BB9C0930101AD
:10014000DCCF8BB18F7C8BB910920101D6CF80911F
:1001500000018111D2CF5E9AC0930001CECFF894F6
:02016000FFCFCF
:00000001FF
