:100000000C9434000C9446000C9446000C9446006A
:100010000C9446000C9446000C9446000C94460048
:100020000C9446000C9446000C9446000C94460038
:100030000C9446000C9446000C9446000C94460028
:100040000C9446000C9446000C9446000C94460018
:100050000C9446000C9446000C9446000C94460008
:100060000C9446000C94460011241FBECFEFD8E03C
:10007000DEBFCDBF21E0A0E0B1E001C01D92A33002
:10008000B207E1F70E9456000C9497000C94000010
:100090004A9908C04B9908C099B1892F807194FD85
:1000A00083E0089581E0089582E008958AB18C6329
:1000B0008AB987B1837E87B98BB1837C8BB9C1E064
:1000C0000E944800823059F0833081F08130B9F4C9
:1000D0009091020191111DC05A9A80930201809162
:1000E000010181111AC05B9AC09301018091000146
:1000F000811117C08BB180638BB9C09300012FEFC2
:1001000084E39CE0215080409040E1F700C0000073
:10011000D7CF5A9810920201E2CF5B98109201015A
:10012000E5CF8BB18F7C8BB910920001E8CFF894AA
:02013000FFCFFF
:00000001FF
