:100000000C9434000C9446000C9446000C9446006A
:100010000C9446000C9446000C9446000C94460048
:100020000C9446000C9446000C9446000C94460038
:100030000C9446000C9446000C9446000C94460028
:100040000C9446000C9446000C9446000C94460018
:100050000C9446000C9446000C9446000C94460008
:100060000C9446000C94460011241FBECFEFD8E03C
:10007000DEBFCDBF21E0A0E0B1E001C01D92A43001
:10008000B207E1F70E945A000C94B3000C940000F0
:1000900032990AC033990AC034990AC08827359921
:1000A0008395880F880F089581E0089582E0089570
:1000B00083E008958AB18C638AB987B1837C87B95C
:1000C0008BB183788BB9C1E00E944800833099F1ED
:1000D000843009F440C0813051F0823001F11BB806
:1000E00010920001109201011092030121C0909121
:1000F0000301911110C05A9A809303018BB18115AD
:1001000019F32FEF84E39CE0215080409040E1F709
:1001100000C00000D9CF5A9810920301EFCF809110
:100120000201811104C05B9AC0930201E7CF5B9882
:1001300010920201E3CF80910101811106C08BB1C1
:1001400080638BB9C0930101D9CF8BB18F7C8BB900
:1001500010920101D3CF809100018111CFCF5E9A1F
:0A016000C0930001CBCFF894FFCF4D
:00000001FF
