:100000000C9434000C9446000C9446000C9446006A
:100010000C9446000C9446000C9446000C94460048
:100020000C9446000C9446000C9446000C94460038
:100030000C9446000C9446000C9446000C94460028
:100040000C9446000C9446000C9446000C94460018
:100050000C9446000C9446000C9446000C94460008
:100060000C9446000C94460011241FBECFEFD8E03C
:10007000DEBFCDBF21E0A0E0B1E001C01D92A53000
:10008000B207E1F70E9454000C94A5000C94000004
:100090008AB18C6F8AB9209A87B1807E87B98BB17B
:1000A00083708BB9289808950E94480081E0309BA6
:1000B00007C09091040191113AC05A9A80930401AB
:1000C000319B07C090910301911135C05B9A8093D9
:1000D0000301339B09C090910201911130C09BB183
:1000E00090669BB980930201329B07C090910101F9
:1000F000911103C05C9A80930101349B08C09091D8
:100100000001911104C05F9A289A809300019BB16D
:10011000911103C095B1911551F22FEF34E39CE09A
:10012000215030409040E1F700C00000C0CF5A9805
:1001300010920401C5CF5B9810920301CACF9BB106
:0E0140009F799BB910920201CFCFF894FFCFA8
:00000001FF
